:020000040800F2
:1000000070090020010100081F0E0008D50B000830
:100010001D0E0008CD08000861180008000000004F
:10002000000000000000000000000000B9120008FD
:10003000CF08000800000000D311000819010008D3
:100040001B0100081B0100081B0100081B01000820
:100050001B0100081B0100081B0100081B01000810
:100060001B0100081B0100081B0100081B01000800
:100070001B0100081B0100081B0100081B010008F0
:100080001B0100081B0100081B0100081B010008E0
:100090001B0100081B0100081B0100081B010008D0
:1000A0001B0100081B0100081B0100081B010008C0
:1000B000691500081B0100081B0100081B0100084E
:1000C0001B0100081B0100081B0100081B010008A0
:1000D0001B0100085D160008611600081B010008DE
:1000E0001B0100081B0100081B010008DFF80CD0F1
:1000F00000F08CF9004800478118000870090020C2
:100100000648804706480047FEE7FEE7FEE7FEE7B1
:10011000FEE7FEE7FEE7FEE7FEE7FEE7191500084B
:10012000ED00000830B505462A460B4612F8010BD3
:1001300013F8014B08B1A042F8D01CB1002802D03E
:100140006D1CF1E7284630BD2DE9F04D81EA03042E
:1001500004F0004B21F0004514464FF0000A23F054
:10016000004150EA050220D054EA01021DD0C5F337
:100170000A570246C5F31303C1F31300C1F30A562D
:1001800040F4801543F48013A7EB0608101BD646F5
:1001900008F2FD3873EB050002D308F1010801E015
:1001A00092185B41B8F1000F03DA00200146BDE868
:1001B000F08D00204FF48011064684460EE0171B98
:1001C00073EB050705D3121B63EB050306434CEAEB
:1001D000010C49084FEA300092185B4150EA0107D0
:1001E000EDD152EA030012D082EA040083EA05014D
:1001F000084305D0101BAB4106D20122002306E0C4
:1002000000224FF0004302E06FF0010253101AEB9E
:1002100006004CEB085110EB0A0041EB0B01BDE866
:10022000F04D00F096B8C10F80EAE0700844CA07AC
:100230009623002100F05FB820F00040C10DC0F30C
:10024000160040F400007F2901DA0020704796294B
:1002500003DCC1F19601C840704796398840704769
:1002600070B5C1F30A5201F000450024C1F3130137
:1002700040F2FF3341F480119A4201DA002070BD50
:1002800040F233439A42A2F2334203DC524200F07E
:1002900019F800E090402C43F1D0404270BD00F0CE
:1002A000004230F000400AD0C10D01F56071C0F38A
:1002B000160042EA0151C20840071143704700206E
:1002C00001467047202A04DB203A21FA02F000217F
:1002D000704721FA02F3D040C2F120029140084356
:1002E000194670470029A8BF7047401C490008BF45
:1002F00020F00100704710B4B0FA80FC00FA0CF056
:1003000050EA010404BF10BC704749B1CCF120048D
:1003100021FA04F411FA0CF118BF0121214308431A
:10032000A3EB0C01CB1D4FEA00614FEA102042BF46
:10033000002010BC704700EBC35010440029A4BF3C
:1003400010BC7047401C490008BF20F0010010BCE1
:10035000704710B5141E73F1000408DA401C41F117
:10036000000192185B411A4301D120F0010010BD39
:100370002DE9F04D92469B4611B1B1FA81F202E0AF
:10038000B0FA80F22032904600F052F804460F4650
:1003900040EA0A0041EA0B0153465A46084313D08B
:1003A000114653EA010019D0C8F140025046FFF748
:1003B00089FF05460E4650465946424600F038F839
:1003C000084305D0012004E020463946BDE8F08D01
:1003D0000020054346EAE0762C4337430A9863053C
:1003E000E40AA0EB08000022FD0A44EA47540A3060
:1003F00002D500200146E9E7010510196941DDE950
:10040000084500196941BDE8F04DA2E7064C074DCB
:1004100006E0E06840F0010394E8070098471034D4
:10042000AC42F6D3FFF766FE9C280008BC28000803
:10043000202A04DB203A00FA02F1002070479140A4
:10044000C2F1200320FA03F319439040704710B51E
:1004500000F0F2FF00F0CCFF012000F0EBFF0320E2
:1004600000F0F3FF0D2000F0FBFF112000F0D8FF9B
:100470004FF4FA6000F0B0FB08B1407A10BDFF20E5
:1004800010BD10B5044600F0D7FF00F0B1FF012009
:1004900000F0D0FF042000F0D8FF022000F0E0FFC1
:1004A000204600F0B1FCE01D00F0BAFF4FF4FA6006
:1004B00000F092FB08B1407A10BDFF2010BD10B5CE
:1004C00000F0BAFF00F094FF012000F0B3FF03201A
:1004D00000F0BBFF012000F0C3FF052000F0A0FFEB
:1004E0004FF4FA6000F078FB08B1407A10BDFF20AD
:1004F00010BD2DE9F04107460C4615461E4600F09A
:100500009BFF00F075FF012000F094FF082000F031
:100510009CFF1B2000F0A4FF384600F075FC200A69
:1005200000F072FCE0B200F06FFC280A00F06CFCF6
:10053000E8B200F069FC07EB1420E1B2084400EBDC
:100540001520E9B20844243000F06AFF4FF4FA6045
:1005500000F042FB58B1417AC27A837A02EB03225F
:100560003280427B007B02EB0020708000E0FF21A4
:100570000846BDE8F081000070B58AB0012188030B
:1005800000F036FE0121042000F032FE0121084671
:1005900000F020FE4FF40070ADF8240018208DF814
:1005A000270003208DF82600304C09A9204600F0D2
:1005B0001DFA2115ADF8241004218DF8271009A982
:1005C000204600F013FA4FF4614005900024ADF886
:1005D0001840ADF81A40ADF81C40ADF820400C2092
:1005E000ADF81E00224E05A9304601F0D3F82521B2
:1005F0008DF8101002218DF811108DF812100125C0
:100600008DF8135004A800F00BFC012240F2255194
:10061000304601F0A4F80121304601F06DF8632066
:10062000ADF8080041F61F40ADF80400ADF80A40EF
:10063000ADF80640AE0701A9304600F0C1FF012227
:100640001146304600F0AFFF1C218DF810108DF8D8
:1006500011408DF812508DF8135004A800F0E0FB03
:100660000021304600F085FF0AB070BD000801404F
:100670000038014070B5044600F0DEFE00F0B8FE20
:10068000012000F0D7FE032000F0DFFE0F2000F075
:10069000E7FE132000F0C4FE4FF47A7000F09CFADD
:1006A000B8B1417AC27B837B02EB03222280427C79
:1006B000A270427D837C057D02EB0362C37C1B0438
:1006C00003EB05231A446260C27D2272407E607291
:1006D00000E0FF21084670BD10B500F0ADFE00F04F
:1006E00087FE012000F0A6FE032000F0AEFE0520EC
:1006F00000F0B6FE092000F093FE4FF4FA6000F01F
:100700006BFA08B1407A10BDFF2010BD70B5144CD3
:1007100040F22551204601F002F800281AD0204668
:1007200001F096F8C4B20F4D2888010412D4642851
:1007300011D24FF080460021304600F03EFF29885C
:1007400019B90121304600F014FF2888411C298086
:1007500005490C5470BD40F40040288070BD000075
:1007600000380140F00000200401002010B50121F4
:100770008C07204600F00BFF00280ED007480188A8
:1007800041F4004101800121204600F0EFFE2046A7
:10079000BDE81040002100F0ECBE10BDF0000020CC
:1007A00070B505460C4600F047FE00F021FE012022
:1007B00000F040FE062000F048FE062000F050FE4B
:1007C000284600F021FB200A00F01EFBE0B200F0FA
:1007D0001BFB05EB1420E1B208440D3000F020FEB5
:1007E0004FF4FA6000F0F8F908B1407A70BDFF20CC
:1007F00070BD10B5044600F01FFE00F0F9FD0120A9
:1008000000F018FE032000F020FE1D2000F028FE5E
:10081000212000F005FE4FF4FA6000F0DDF930B160
:10082000417AC27A807A02EB0020208000E0FF212A
:10083000084610BD10B500F0FFFD00F0D9FD012005
:1008400000F0F8FD072000F000FE012000F008FE97
:10085000002000F0D9FA002000F0D6FA002000F0C5
:10086000D3FA002000F0D0FA092000F0D9FD4FF4AF
:10087000FA6000F0B1F908B1407A10BDFF2010BD58
:1008800038B50121082000F0B3FC2020ADF80000AD
:1008900010208DF8030003208DF80200044C6946F7
:1008A000204600F0A3F82021204600F0FEF838BDD5
:1008B000000C01402021014800F0F7B8000C014075
:1008C0002021014800F0EFB8000C0140FEE770471E
:1008D0003EB50121084600F07DFC4720ADF8000040
:1008E0000020ADF802004FF6FF71ADF80410ADF82E
:1008F00006004FF080446946204600F061FE012169
:10090000204600F036FE3EBD70B5054600244FF48B
:100910007A7603E0304600F004F8641CAC42F9D368
:1009200070BD70B504464FF080450021284600F0A8
:1009300044FE284600F029FEA042FAD370BD000014
:1009400070B586B00121042000F052FC012148045A
:1009500000F040FC0425ADF8145018208DF8170065
:1009600003248DF816401F4E05A9304600F03EF8CE
:100970000821ADF814108DF8175005A9304600F085
:1009800035F84FF4E13001900020ADF80800ADF8E3
:100990000A00ADF80C00ADF810000C20ADF80E0008
:1009A000114D01A9284600F0F5FE26218DF8001012
:1009B0008DF801408DF8024001218DF80310684642
:1009C00000F02EFA012240F22551284600F0C7FE21
:1009D0000121284600F090FE6420FFF795FF06B045
:1009E00070BD000000080140004400402DE9F041C6
:1009F0000022CC7804F00F03E40601D58C78234361
:100A00000C784FF00F0714F0FF0F4FF0010C1CD0C3
:100A100005680CFA02F40E882640A64211D1960011
:100A200007FA06F825EA080503FA06F848EA050574
:100A3000CE78282E02D0482E02D002E0446100E099
:100A40000461521C082AE4D305600A88FF2A1ED9D3
:100A50004568002202F108060CFA06F40E882640CA
:100A6000A64210D1960007FA06F825EA080503FA0F
:100A700006F848EA0505CE78282E00D14461CE78E4
:100A8000482E00D10461521C082AE3D34560BDE81A
:100A9000F081806880B270470246002092680A4266
:100AA00000D0012070474161704701617047002A02
:100AB00001D00161704741617047000010B500F03E
:100AC0004BF80D4C20606168401AA06000280BDDD7
:100AD000FFF7A9FBFFF7E3FB0022084BFFF734FB0E
:100AE000FFF7BEFBA06001E00020A060A068BDE8A9
:100AF0001040FFF798BB0000E400002000287A4077
:100B000010B500F029F80149486010BDE40000204C
:100B100038B50121082000F06BFB0120ADF8000082
:100B200010208DF8030003208DF80200094C69465F
:100B30002046FFF75BFF0221ADF8001048218DF839
:100B4000031069462046FFF751FF01212046FFF7B9
:100B5000ACFF38BD000C014070B500241C4E0121D3
:100B60003046FFF7A0FF0120FFF7DBFE02213046F1
:100B7000FFF792FF0028F9D1002501213046FFF749
:100B800094FF64000120FFF7CCFE01213046FFF7FF
:100B90008AFF02213046FFF77FFF00B1641C01206D
:100BA000FFF7BFFE6D1CEDB2182DE6D301213046D4
:100BB000FFF77BFF0120FFF7B4FE01213046FFF76E
:100BC00072FF200201D5A4F18074204670BD0000A0
:100BD000000C0140FEE700007CB50446EF208DF8D4
:100BE000000001208DF80100144D6868010E8DF899
:100BF0000210010C8DF80310010A8DF804108DF815
:100C0000050007208DF8060000268DF807602E806D
:100C10006E800CE00120FFF777FE2888000406D5DF
:100C20002E8069460648FFF77DFA002804D1641E2D
:100C30002404240CEED100207CBD0000F000002034
:100C40000401002038B50121042000F0D1FAF02081
:100C5000ADF8000010208DF8030003208DF802008D
:100C60000A4C69462046FFF7C1FE4FF47041ADF8CB
:100C7000001048218DF8031069460548FFF7B6FEBD
:100C8000F0212046FFF711FF38BD000000080140A9
:100C9000000C01402DE9F04100240025DFF86081BF
:100CA000584F0F26F0214046FFF7FFFE35B1012DCA
:100CB00009D0022D0CD0032D13D10EE01021404697
:100CC000FFF7F1FE0DE020214046FFF7ECFE08E0C3
:100CD00040214046FFF7E7FE03E080214046FFF752
:100CE000E2FE0A20FFF71DFE3846FFF7D2FEB6EB04
:100CF000103F7DD01420FFF707FE3846FFF7C9FEEE
:100D0000B6EB103F74D04FF480513846FFF7C4FE65
:100D1000A0B14FF400513846FFF7BEFE80B14FF44A
:100D200080413846FFF7B8FE60B14FF400413846C5
:100D3000FFF7B2FE40B10020BDE8F081002004E0E2
:100D4000012002E0022000E0032035B1012D14D083
:100D5000022D22D0032D40D12FE030B1012806D042
:100D6000022806D0032838D105E0012435E002240A
:100D700033E0032431E004242FE030B1012806D011
:100D8000022806D0032828D105E0052425E0062402
:100D900023E0072421E008241FE030B1012806D019
:100DA000022806D0032818D105E0092415E00A24FA
:100DB00013E00B2411E00C240FE030B1012806D021
:100DC000022807D0032808D106E00D2405E00E24F0
:100DD00003E00DE00F2400E010243846FFF759FE31
:100DE000B6EB103FF9D11420FFF78EFD2046A3E7A4
:100DF0006D1CEDB2042DFFF455AF00209CE7000000
:100E000000080140000C014003490A885206FCD545
:100E10000149091D0880704700380140FEE770470E
:100E200070B50F23C27801260178002A1ED0144A1B
:100E3000126802F4E062C2F5E062120AC2F1040430
:100E4000D3404578A54082781A402A43120101F127
:100E5000E02181F80024007800F01F018E40400955
:100E6000800000F1E020C0F8006170BD01F01F00BB
:100E700086404809800000F1E020C0F8806170BD24
:100E80000CED00E070B500250021284600F00EF9B9
:100E90000024002000F08CF9641CE4B2802CF8D30C
:100EA0006D1CEDB2082DEFD370BD0000F8B5012127
:100EB000082000F09DF914208DF8030003208DF820
:100EC00002004FF48074ADF800400B4E6946304686
:100ED000FFF78CFD6500ADF8005069463046FFF71E
:100EE00085FD012221463046FFF7E1FD012229461A
:100EF0003046FFF7DCFDF8BD000C01402DE9F0475E
:100F000007460024194D4FF080094FF40078AE15C4
:100F100029FA04F23A4041462846FFF7C8FD01226B
:100F200031462846FFF7C3FD0520FFF7FAFC0022F3
:100F300031462846FFF7BBFD0520FFF7F2FC641C95
:100F4000E4B2082CE4D3012231462846FFF7AFFD76
:100F50000520FFF7E6FC002231462846FFF7A7FDF3
:100F6000BDE8F0470520FFF7DCBC0000000C0140A5
:100F700070B501220E4D540221462846FFF797FD19
:100F80000122160231462846FFF791FD0520FFF7A2
:100F9000C8FC002221462846FFF789FD0520FFF7FF
:100FA000C0FC31462846BDE870400022FFF77FBDF7
:100FB000000C014070B50D4D4FF400740022214625
:100FC0002846FFF774FD012211022846FFF76FFD46
:100FD0000520FFF7A6FC012221462846FFF767FD02
:100FE000BDE870400520FFF79CBC0000000C0140EC
:100FF00010B500214FF47A720020401C9042FCD3BF
:10100000491C9142F8D3FFF751FFAE2000F0BFF822
:10101000D52000F0BCF8802000F0B9F8A82000F03E
:10102000B6F83F2000F0B3F8D32000F0B0F800206D
:1010300000F0ADF8402000F0AAF8A12000F0A7F8D9
:10104000C82000F0A4F8DA2000F0A1F8122000F087
:101050009EF8812000F09BF8CF2000F098F8D9206E
:1010600000F095F8F12000F092F8DB2000F08FF806
:10107000302000F08CF8A42000F089F8A62000F0C1
:1010800086F88D2000F083F8142000F080F8AF205F
:1010900000F07DF8BDE81040FFF7F4BE03460120E4
:1010A00000E05843491E4A1CFBD1704710B50C465E
:1010B00040F0B00000F06BF8102040EA141000F08F
:1010C00066F804F00F00BDE8104000F060B80000C2
:1010D0002DE9F0411546491E461ECF007006F9B2B3
:1010E000000EFFF7E3FF00240E48203D00EB05153E
:1010F000285D00F05DF8641CE4B2082CF8D30120F0
:1011000000EB4600F9B2C0B2FFF7D0FF0024281967
:10111000007A00F04DF8641CE4B2082CF7D3BDE867
:10112000F0810000AC2200082DE9F04781460F460F
:1011300090461E4600240A2512E0311B491E0A2053
:10114000FFF7ACFFB8FBF0F2B2FBF5F005FB1022A5
:101150003819C1B230324846FFF7BAFF641CE4B216
:10116000B442EAD3BDE8F0872DE9F04107460D46C9
:101170001646002406E02819C1B23846FFF7A8FF3A
:10118000641CE4B2325D002AF5D1BDE8F08110B5EF
:101190000446FFF7EDFE7820FFF7B0FE0020FFF7D2
:1011A000ADFE2046FFF7AAFEBDE81040FFF702BFE4
:1011B00010B50446FFF7DCFE7820FFF79FFE4020C5
:1011C000FFF79CFE2046FFF799FEBDE81040FFF7B1
:1011D000F1BE7047054A002903D0D1690143D161AE
:1011E0007047D1698143D16170470000001002400F
:1011F000054A002903D091690143916170479169C3
:1012000081439161704700000010024010B5264AEA
:10121000516801F00C01254B002927D0042927D063
:10122000082927D00360516801F0F0010909204B1B
:101230005C5C0168E1404160546804F4E064240AA5
:101240001C5D21FA04F48460546804F46054E40AD8
:101250001B5DD940C160526802F44042920B144BAE
:101260001B1F9A5CB1FBF2F1016110BD0360DAE76C
:101270000360D8E7516801F47011536803F48033B8
:10128000022404EB914133B153689B0307D5094B0A
:1012900059430160C7E7074B59430160C3E7034B5C
:1012A00059430160BFE700000010024000127A00BD
:1012B0000400002000093D007047000010B586B012
:1012C00001210820FFF794FF01218804FFF782FF26
:1012D0004FF48060ADF8140018208DF8170003203B
:1012E0008DF81600154C05A92046FFF77FFBE11489
:1012F000ADF8141004218DF8171005A92046FFF74A
:1013000075FB4FF4165001900020ADF80800ADF8C1
:101310000A00ADF80C00ADF810000C20ADF80E007E
:10132000074C01A9204600F035FA0121204600F0C3
:10133000E3F96420FFF7E8FA06B010BD000C0140A5
:101340000048004070B59AB000230024FD258DF8B8
:10135000045000258DF80550D51C8DF80650012548
:101360008DF8075005EB00108DF8080001AD285DE1
:101370004340641CE4B2052CF9D3002003E00C5C6C
:101380006340401CC0B29042F9D3002004E02E1804
:101390000C5C7471401CC0B29042F8D3A818437121
:1013A000921DD1B201A800F015F81AB070BD00006E
:1013B00070B50546064C8021204600F0A9F90028AA
:1013C000F9D029462046BDE8704000F045BA00003B
:1013D0000048004070B505460E46002405E015F8AB
:1013E000010BFFF7E5FF641CE4B2B442F7D370BD14
:1013F00010B50A4C6068000EFFF706FD6068C0F388
:101400000740FFF701FDA088C0F30720FFF7FCFCB1
:101410002079BDE81040FFF7F7BC0000F000002085
:1014200010B50446200AFFF7EFFCE0B2BDE810401B
:10143000FFF7EABCFFF7E8BC10B5EF20FFF7E4FCCC
:10144000BDE810400120FFF7DFBC10B50446C4F32F
:101450000720FFF7D9FCE0B2BDE81040FFF7D4BC8D
:10146000FFF7D2BCAFF300800CB5002201920092CE
:101470002748016841F4803101604FF4A06301689E
:1014800001F4003100910199491C0191009911B9B1
:1014900001999942F3D10168890302D50121009194
:1014A00000E000920099012930D11A490A6842F0FF
:1014B00010020A600A6822F003020A600A6842F019
:1014C00002020A604168416041684160416841F43C
:1014D00080614160416821F47C114160416841F4C0
:1014E000E8114160016841F0807101600168890183
:1014F000FCD5416821F003014160416841F00201DF
:1015000041604168C1F381010229FAD10CBD00009C
:10151000001002400020024010B50F48016841F061
:101520000101016041680D4A1140416001680C4AA7
:1015300011400160016821F480210160416821F4BB
:10154000FE0141604FF41F018160FFF78BFF0549E9
:101550004FF00060086010BD001002400000FFF86E
:10156000FFFFF6FE08ED00E0FFF700B9C943018276
:101570007047002904D0018841F0010101807047C3
:10158000018821F0010101807047808C704702467C
:101590000020138A0B4092890A40002B02D0002AB7
:1015A00000D001207047002A03D082890A4382813B
:1015B000704782898A438281704781847047000026
:1015C00030B502881B4C1C4DA0420DD0A8420BD058
:1015D000B0F1804F08D0194B984205D0184B984273
:1015E00002D0184B984203D122F070034A881A4364
:1015F000154B984206D0154B984203D022F4407305
:10160000CA881A4302808A8882850A880285A04295
:101610000AD0A84208D00E4A904205D00D4A904206
:1016200002D00D4A904201D1097A018601218182BE
:1016300030BD0000002C0140003401400004004097
:1016400000080040000C0040001000400014004062
:10165000004001400044014000480140FFF756B8F7
:1016600070B51F4D40F225563146284600F057F818
:10167000002834D0284600F0EBF8C2B2194840F2F6
:10168000FF31B0F80034C3F30E048C4208D24FF49B
:10169000003101EBF3314FEA7141A0F8001402551B
:1016A0000A2A16D1B0F80014C1F30E02022A10D390
:1016B000024412F8021C0D290BD1002102F8021C71
:1016C000B0F80024911E61F30E0242F40041A0F82C
:1016D000001431462846BDE8704000F005B870BDE2
:1016E000004400406801002040F66A120A0A012105
:1016F0009140C94301807047002904D0818941F499
:10170000005181817047818921F4005181817047A6
:101710000246002012880A4200D00120704770B5AE
:10172000002440F66A12C1F3421301F01F0501269E
:1017300006FA05F2012B0CD0022B0DD0838A134040
:10174000090A8E40008830400BB100B101242046C8
:1017500070BD83891340F3E7038A1340F0E710B5A7
:1017600040F66A13C1F3421301F01F040121A140A6
:10177000012B07D0022B07D014303AB102680A437C
:10178000026010BD0C30F8E71030F6E702688A43BB
:10179000026010BD30B585B004460D46208A4CF677
:1017A000FF710840E98801432182A0894EF6F311B8
:1017B0000840A9882A8911436A8902431143A181FB
:1017C000A08A4FF6FF410840A9890143A1826846DB
:1017D000FFF71CFD1D48844201D1039800E00298E8
:1017E000A189090408D500EBC00101EB00102968AC
:1017F0004900B0FBF1F007E000EBC00101EB001085
:1018000029688900B0FBF1F06422B0FBF2F1090114
:101810000B096FF018056B4300EB8300A3891D04CF
:101820004FF0320307D503EBC000B0FBF2F000F03D
:101830000700084306E003EB0010B0FBF2F000F0F5
:101840000F000843208105B030BD00000038014082
:101850008088C0F308007047C1F308018180704799
:10186000FEE702E008C8121F08C1002AFAD170473B
:101870007047002001E001C1121F002AFBD1704710
:1018800008B5FFF725F8FEF7FBFFFFF7B1FBFFF701
:10189000D9F9FFF73DF9FFF711FDFFF751F8FEF712
:1018A0006BFEFFF70DF8C820FFF72EF8FFF702F8E0
:1018B000FFF726F9F9A201210220FFF755FC1022BB
:1018C000FB490120FFF73EFD40F6B830FFF71CF85A
:1018D000FFF7D8FAFFF7D6FA0121F6A20846FFF77C
:1018E00043FCFEF7A7FF4FF47A76750000283CD042
:1018F000F5A201210220FFF737FCED490A226631EB
:101900000220FFF71FFD2846FEF7FEFFFFF7BAFA99
:101910000121F2A20846FFF727FCF3A201210220D1
:10192000FFF722FCF4A201210320FFF71DFCF4A223
:1019300001210420FFF718FC4FF4FA77FFF7AAF90A
:101940000446002CFAD0F2A206210320FFF70CFC7B
:10195000112C71D2DFE804F0AD52585E89646A71CF
:101960008F777D8395A14CA79B00EBA201210220DC
:10197000FFF7FAFBCE490A225B310220FFF7E2FCB7
:10198000E948FEF777FE0028BDD1E8A20121032037
:10199000FFF7EAFB3046FEF7B7FFFFF773FA0121C6
:1019A000E7A20846FFF7E0FBDF4C03230E21228865
:1019B0000120FFF7B9FBE6A201210220FFF7D4FBCB
:1019C000A278012310210220FFF7AEFBE5A201213E
:1019D0000320FFF7C9FB627A4FF4165042430523F8
:1019E0000C210320FFF7A0FB2846FEF78DFF8AE7B6
:1019F000DFA206210320FFF7B7FB5FE0DDA206218F
:101A00000320FFF7B1FB59E0DBA206210320FFF71B
:101A1000ABFB53E0D9A206210320FFF7A5FB4DE065
:101A2000D7A206210320FFF79FFB47E0D5A206219E
:101A30000320FFF799FB41E03BE0D3A206210320FE
:101A4000FFF792FB3AE0D1A206210320FFF78CFBBF
:101A500034E0CFA206210320FFF786FB2EE0CDA2C3
:101A600006210320FFF780FB28E0CBA206210320FC
:101A7000FFF77AFB22E0C9A206210320FFF774FBDF
:101A80001CE0C7A206210320FFF76EFB16E0C5A2EB
:101A900006210320FFF768FB10E0C3A20621032004
:101AA000FFF762FB0AE0C1A206210320FFF75CFBFF
:101AB00004E0BFA206210320FFF756FB0D2C75D2D0
:101AC000DFE804F074071A37EA4C75E9E8E7747444
:101AD000E600B8A201210420FFF746FBFEF7F0FE66
:101AE0003846FEF711FFFEF7E5FE71490C22113171
:101AF0000220FFF727FC3BE3FEF7E0FF0446B1A21C
:101B000001210420FFF730FB2046FEF795FB02463B
:101B1000032308210420FFF707FBADA20B210420BB
:101B2000FFF722FB624908221E310320FFF70AFC5F
:101B30001EE3FFF711F80446A6A201210420FFF7D7
:101B400013FB0823224606210420FFF7EDFA58492B
:101B50000E2227310420FFF7F5FB09E39FA20121A4
:101B60000420FFF701FB6420FEF7CEFEFFF78AF9A1
:101B70006420FEF7C9FE012158A20846FFF7F4FAD7
:101B800059A201210220FFF7EFFA5BA201210320F5
:101B9000FFF7EAFA5AA201210420FFF7E5FA4449C7
:101BA0000A2236310520FFF7CDFBE1E2DAE2FFF74A
:101BB00069F901218DA20846FFF7D6FA8EA201210C
:101BC0000220FFF7D1FA3A49072208390220FFF72D
:101BD000B9FBFEF774FC20B38BA201210220FFF7B2
:101BE000C3FA33490C227E310220FFF7ABFB2846B3
:101BF000FEF78AFEFFF746F9012138A20846FFF7F3
:101C0000B3FA39A201210220FFF7AEFA3AA201216C
:101C10000320FFF7A9FA3AA201210420FFF7A4FA52
:101C2000A6E27CA201210320FFF79EFA0120FEF725
:101C300028FC58B17AA201210320FFF795FA1C492C
:101C40000C227E310220FFF77DFBD0E778A2012134
:101C50000420FFF789FA3046FEF756FE77A20121ED
:101C60000220FFF781FA1249072208390320FFF703
:101C700069FBFEF724FC80B163A201210220FFF77B
:101C800073FA0B490C227E310220FFF75BFBAEE7B3
:101C900038E2B0E113E21FE1FEE1D5E0537973745D
:101CA000656D2052656164792120202000000000CC
:101CB0002000002046696E6765727072696E74203C
:101CC000546573742E2E2E00465020506173737726
:101CD0006F7264204572726F720000004B6579204C
:101CE00054657374000000005072657373206B6557
:101CF00079732E2E2E0000004B65793A20000000EB
:101D0000416374696F6E3A204E6F6E65000000008B
:101D1000202020202000000046502050617373775F
:101D20006F7264204F4B0000F80000204650205096
:101D30006172616D732052656164204F4B00000039
:101D400046502043617061636974793A2000000055
:101D50005365637572697479204C6576656C3A20B9
:101D6000000000004261756420526174653A2000F1
:101D7000300000003100000032000000330000009D
:101D8000340000003500000036000000370000007D
:101D9000380000003900000041000000420000004F
:101DA00043000000440000002A000000230000005F
:101DB0003F000000416374696F6E3A2042656570B0
:101DC000000000005765696768743A200000000051
:101DD000670000005261773A200000004163746997
:101DE0006F6E3A20436C65617200000046502052CD
:101DF0006567697374657200506C6163652046693C
:101E00006E67657200000000496D6167652045726C
:101E1000726F7200496D616765204F4B00000000D2
:101E200047656E43686172204572726F72000000F0
:101E30004669727374204F4B00000000506C616360
:101E40006520416761696E000220FEF71AFB50B100
:101E5000CAA201210320FFF787F90C22CB490220F7
:101E6000FFF770FAC3E6CAA201210320FFF77CF94D
:101E7000FEF732FC50B1C9A201210420FFF774F92A
:101E80000C22C2490220FFF75DFAB0E6C6A201218A
:101E90000420FFF769F93846FEF736FD00210220DD
:101EA000FEF77EFC50B1C3A201210420FFF75CF9CC
:101EB0000C22B6490220FFF745FA98E6FEF7E2FF4A
:101EC0000121BFA20846FFF74FF9B0490C220D3996
:101ED0000120FFF737FA8AE6FEF7D4FF0121BDA201
:101EE0000846FFF741F9AFF2F00201210220FFF7A7
:101EF0003BF9A649072286390220FFF723FAFEF7AD
:101F0000DEFA18B3AFF2001201210320FFF72CF91B
:101F10002846FEF7F9FCFEF7B5FFAFF2402201219B
:101F20000846FFF721F9AFF2402201210220FFF716
:101F30001BF9AFF23C2201210320FFF715F9AFF2A4
:101F4000402201210420FFF70FF911E1AFF23C120A
:101F500001210320FFF708F90120FEF792FA30B1C2
:101F6000AFF2441201210420FFF7FEF8D0E79CA253
:101F700001210420FFF7F8F83846FEF7C5FC834B33
:101F800064228A3B00210120FEF7B3FA68B1FEF714
:101F900079FF012195A20846FFF7E6F87B490C225C
:101FA0001A310220FFF7CEF9B2E7FEF76BFF0121ED
:101FB00092A20846FFF7D8F894A201210220FFF769
:101FC000D3F8724C03238A3C042122880220FFF7B5
:101FD000ABF890A201210320FFF7C6F86288042322
:101FE00007210320FFF7A0F80C2204F1970101203C
:101FF000FFF7A8F98CE7FEF745FF012187A2084605
:10200000FFF7B2F88AA201210220FFF7ADF88CA2F7
:1020100001210320FFF7A8F8FEF73CFE0928FBD1B9
:10202000FEF715FA50B3FEF72DFF012188A20846EE
:10203000FFF79AF855490D2235310220FFF782F952
:102040002846FEF761FCFEF71DFFAFF2703201215A
:102050000846FFF789F8AFF2703201210220FFF73E
:1020600083F8AFF26C3201210320FFF77DF8AFF265
:10207000703201210420FFF777F879E0FEF702FFC4
:10208000012177A20846FFF76FF840490D2227315A
:102090000120FFF757F9D3E775A201210420FFF7CC
:1020A00063F8FEF70DFC3046FEF72EFCFEF702FC4F
:1020B00036490C223D390620FFF744F958E071A259
:1020C00001210420FFF750F8FEF7F8FC0446AFF2B8
:1020D0000C3201210420FFF747F82046FEF7ACF848
:1020E0000246032308210420FFF71EF864A20B21F7
:1020F0000420FFF739F825490C2230390720FFF773
:1021000021F935E06846FEF774FB50BBFEF7BAFED6
:10211000012161A20846FFF727F80323BDF800203C
:1021200001210220FFF700F82846FEF7EDFBFEF73D
:10213000A9FEAFF2584201210846FFF715F8AFF2A9
:10214000584201210220FFF70FF8AFF2544201215B
:102150000320FFF709F8AFF2584201210420FFF7EE
:1021600003F805E0AFF2684201210420FEF7FCFF0E
:10217000C820FEF7C9FBFFF7E1BB00005365636FA2
:102180006E64204572726F72000000009E00002095
:102190005365636F6E64204F4B0000004D6572679E
:1021A00065204572726F72004D65726765204F4BF6
:1021B0000000000053746F7265204572726F7200E8
:1021C00052656769737465722053756363657373D1
:1021D00000000000465020566572696679000000D4
:1021E00047656E43686172204F4B00005665726907
:1021F0006679204661696C65640000005665726905
:1022000066792053756363657373000049443A200F
:102210000000000053636F72653A2000436C6561F3
:1022200072204650204C6962726172790000000091
:1022300041726520796F7520737572653F000000EB
:102240005072657373203720616761696E0000000A
:10225000436C656172204661696C65640000000032
:10226000436C65617220537563636573730000008E
:10227000416374696F6E3A2042656570204C6F6EE1
:1022800067000000416374696F6E3A2053686F778E
:10229000205765696768740056616C6964205465ED
:1022A0006D706C617465733A0000000000000000FE
:1022B000000000000000000000000000000000F826
:1022C00000000000000000333000000000100C0689
:1022D000100C0600000000000000000040C0784024
:1022E000C0784000043F04043F040400007088FCF0
:1022F00008300000001820FF211E0000F008F00048
:10230000E018000000211C031E211E0000F00888B8
:10231000700000001E2123241927211010160E0022
:10232000000000000000000000000000000000E0CD
:1023300018040200000000071820400000020418E2
:10234000E00000000040201807000000404080F03E
:10235000804040000202010F01020200000000F074
:10236000000000000101011F010101000000000048
:102370000000000080B070000000000000000000BD
:102380000000000000010101010101010000000046
:1023900000000000003030000000000000000000DD
:1023A00080601804006018060100000000E01008BA
:1023B0000810E000000F102020100F00001010F88F
:1023C000000000000020203F2020000000700808CE
:1023D000088870000030282422213000003008884E
:1023E000884830000018202020110E000000C02076
:1023F00010F8000000070424243F240000F8088897
:10240000880808000019212020110E0000E0108823
:1024100088180000000F112020110E000038080855
:10242000C83808000000003F000000000070880865
:1024300008887000001C222121221C0000E01008E6
:102440000810E0000000312222110F00000000C03F
:10245000C0000000000000303000000000000080DC
:1024600000000000000080600000000000008040CC
:1024700020100800000102040810200040404040E5
:102480004040400004040404040404000008102038
:10249000408000000020100804020100007048087D
:1024A0000808F0000000003036010000C030C828E5
:1024B000E810E0000718272423140B000000C038A0
:1024C000E0000000203C23020227382008F888881A
:1024D00088700000203F202020110E00C030080826
:1024E00008083800071820202010080008F80808FD
:1024F0000810E000203F202020100F0008F88888F6
:10250000E8081000203F20202320180008F88888C1
:10251000E8081000203F200003000000C030080839
:102520000838000007182020221E020008F80800C2
:102530000008F808203F210101213F20000808F889
:10254000080800000020203F2020000000000808AC
:10255000F8080800C08080807F00000008F888C06C
:1025600028180800203F20012638200008F808001D
:1025700000000000203F20202020300008F8F80054
:10258000F8F80800203F003F003F200008F830C066
:102590000008F808203F200007183F00E010080856
:1025A0000810E0000F10202020100F0008F8080885
:1025B0000808F000203F210101010000E010080898
:1025C0000810E0000F18242438504F0008F88888BD
:1025D00088887000203F2000030C3020007088089D
:1025E000080838000038202121221C00180808F8AB
:1025F000080818000000203F2000000008F808002C
:102600000008F808001F202020201F0008788800FC
:1026100000C83808000007380E010000F80800F86C
:102620000008F800033C0700073C03000818688016
:102630008068180820302C03032C30200838C8008C
:10264000C83808000000203F2000000010080808DB
:10265000C83808002038262120201800000000FE7D
:10266000020202000000007F40404000000C30C029
:1026700000000000000000010638C0000002020255
:10268000FE000000004040407F0000000000040207
:102690000202040000000000000000000000000032
:1026A0000000000080808080808080800002020422
:1026B000000000000000000000000000000080801A
:1026C000808000000019242222223F2008F8008088
:1026D00080000000003F112020110E00000000804B
:1026E00080800000000E11202020110000000080DA
:1026F0008088F800000E112020103F20000080800C
:1027000080800000001F222222221300008080F01F
:10271000888888180020203F20200000000080804A
:1027200080808000006B94949493600008F800808F
:1027300080800000203F210000203F2000809898EA
:10274000000000000020203F20200000000000804A
:102750009898000000C08080807F000008F800008A
:1027600080808000203F24022D302000000808F8DF
:10277000000000000020203F20200000808080809A
:1027800080808000203F20003F20003F808000802C
:1027900080800000203F210000203F20000080803A
:1027A00080800000001F202020201F0080800080EB
:1027B0008000000080FFA12020110E00000000809A
:1027C00080808000000E112020A0FF80808080008B
:1027D0008080800020203F212000010000008080B8
:1027E000808080000033242424241900008080E0AD
:1027F000808000000000001F20200000808000007A
:1028000000808000001F202020103F20808080005A
:102810000080808000010E3008060100808000806A
:10282000008080800F300C030C300F00008080008F
:10283000808080000020312E0E31200080808000BA
:102840000080808080818E7018060100008080806A
:10285000808080000021302C222130000000000008
:10286000807C020200000000003F404000000000A9
:10287000FF00000000000000FF0000000002027CDA
:10288000800000000040403F000000000006010101
:10289000020204040000000000000000BC28000840
:1028A00000000020F800000062180008B4290008A9
:1028B000F8000020780800007218000802040608DA
:1028C00000000000010203040102030406070809D6
:1028D00000000000C7B0CFD6B8BCC600BBB6D3ADB1
:1028E000CAB9D3C3C3C5BDFBCFB5CDB300B0B4BC6B
:1028F000FCD2BBB1BBB0B4CFC200B5B1C7B0D6D368
:10290000C1BF00D4ADCABCCAF3BEDDD2D1CFD6CAD6
:10291000BE00C6F8C4BFD2D1C7EC968000B3A4C332
:10292000F9B2E2CAD4CDF6BCC600D6D3C1BFD6C672
:10293000CABECDF6BCC600D6B8BCC6C4A3B9A6B93B
:10294000A600D6B8BCC6C4A3CAA7B0DC00D6B8BC23
:10295000C6D7A2B4ABB9A6B9A600D6B8BCC6D7A292
:10296000B4ABCAA7B0DC00D6B8BCC6D1E9D6A4B90E
:10297000A6B9A600D6B8BCC6D1E9D6A4CAA7B0DC11
:1029800000B8BCC6C0B0C8B4D7A2B9A6B9A600B832
:10299000BCC6C0B0C8B4D7A2CAA7B0DC0000000053
:1029A0000000000000000000000000000000000027
:0429B000FFFFFFFF27
:04000005080000ED02
:00000001FF
